{
  "contractName": "EcommerceStore",
  "abi": [
    {
      "constant": true,
      "inputs": [],
      "name": "ProductIndex",
      "outputs": [
        {
          "name": "",
          "type": "uint256"
        }
      ],
      "payable": false,
      "stateMutability": "view",
      "type": "function"
    },
    {
      "inputs": [],
      "payable": false,
      "stateMutability": "nonpayable",
      "type": "constructor"
    },
    {
      "constant": false,
      "inputs": [
        {
          "name": "_name",
          "type": "string"
        },
        {
          "name": "_catelogy",
          "type": "string"
        },
        {
          "name": "_imgLink",
          "type": "string"
        },
        {
          "name": "_startTime",
          "type": "uint256"
        },
        {
          "name": "_price",
          "type": "uint256"
        },
        {
          "name": "_condition",
          "type": "uint256"
        }
      ],
      "name": "addProductInStore",
      "outputs": [],
      "payable": false,
      "stateMutability": "nonpayable",
      "type": "function"
    },
    {
      "constant": true,
      "inputs": [
        {
          "name": "_producID",
          "type": "uint256"
        }
      ],
      "name": "getproduct",
      "outputs": [
        {
          "name": "",
          "type": "uint256"
        },
        {
          "name": "",
          "type": "string"
        },
        {
          "name": "",
          "type": "string"
        },
        {
          "name": "",
          "type": "string"
        },
        {
          "name": "",
          "type": "uint256"
        },
        {
          "name": "",
          "type": "uint256"
        },
        {
          "name": "",
          "type": "uint8"
        },
        {
          "name": "",
          "type": "address"
        }
      ],
      "payable": false,
      "stateMutability": "view",
      "type": "function"
    }
  ],
  "bytecode": "0x608060405234801561001057600080fd5b5060008081905550610a48806100276000396000f300608060405260043610610057576000357c0100000000000000000000000000000000000000000000000000000000900463ffffffff168063283205231461005c5780637b6ded8614610087578063f008ef181461019a575b600080fd5b34801561006857600080fd5b50610071610375565b6040518082815260200191505060405180910390f35b34801561009357600080fd5b50610198600480360381019080803590602001908201803590602001908080601f0160208091040260200160405190810160405280939291908181526020018383808284378201915050505050509192919290803590602001908201803590602001908080601f0160208091040260200160405190810160405280939291908181526020018383808284378201915050505050509192919290803590602001908201803590602001908080601f016020809104026020016040519081016040528093929190818152602001838380828437820191505050505050919291929080359060200190929190803590602001909291908035906020019092919050505061037b565b005b3480156101a657600080fd5b506101c560048036038101908080359060200190929190505050610595565b604051808981526020018060200180602001806020018881526020018781526020018660018111156101f357fe5b60ff1681526020018573ffffffffffffffffffffffffffffffffffffffff1673ffffffffffffffffffffffffffffffffffffffff16815260200184810384528b818151815260200191508051906020019080838360005b8381101561026557808201518184015260208101905061024a565b50505050905090810190601f1680156102925780820380516001836020036101000a031916815260200191505b5084810383528a818151815260200191508051906020019080838360005b838110156102cb5780820151818401526020810190506102b0565b50505050905090810190601f1680156102f85780820380516001836020036101000a031916815260200191505b50848103825289818151815260200191508051906020019080838360005b83811015610331578082015181840152602081019050610316565b50505050905090810190601f16801561035e5780820380516001836020036101000a031916815260200191505b509b50505050505050505050505060405180910390f35b60005481565b610383610910565b600160008082825401925050819055506101006040519081016040528060005481526020018881526020018781526020018681526020018581526020018481526020018360018111156103d257fe5b60018111156103dd57fe5b8152602001600073ffffffffffffffffffffffffffffffffffffffff16815250905080600160003373ffffffffffffffffffffffffffffffffffffffff1673ffffffffffffffffffffffffffffffffffffffff168152602001908152602001600020600080548152602001908152602001600020600082015181600001556020820151816001019080519060200190610477929190610977565b506040820151816002019080519060200190610494929190610977565b5060608201518160030190805190602001906104b1929190610977565b506080820151816004015560a0820151816005015560c08201518160060160006101000a81548160ff021916908360018111156104ea57fe5b021790555060e08201518160060160016101000a81548173ffffffffffffffffffffffffffffffffffffffff021916908373ffffffffffffffffffffffffffffffffffffffff16021790555090505033600260008054815260200190815260200160002060006101000a81548173ffffffffffffffffffffffffffffffffffffffff021916908373ffffffffffffffffffffffffffffffffffffffff16021790555050505050505050565b600060608060606000806000806105aa610910565b60016000600260008d815260200190815260200160002060009054906101000a900473ffffffffffffffffffffffffffffffffffffffff1673ffffffffffffffffffffffffffffffffffffffff1673ffffffffffffffffffffffffffffffffffffffff16815260200190815260200160002060008b8152602001908152602001600020610100604051908101604052908160008201548152602001600182018054600181600116156101000203166002900480601f0160208091040260200160405190810160405280929190818152602001828054600181600116156101000203166002900480156106dd5780601f106106b2576101008083540402835291602001916106dd565b820191906000526020600020905b8154815290600101906020018083116106c057829003601f168201915b50505050508152602001600282018054600181600116156101000203166002900480601f01602080910402602001604051908101604052809291908181526020018280546001816001161561010002031660029004801561077f5780601f106107545761010080835404028352916020019161077f565b820191906000526020600020905b81548152906001019060200180831161076257829003601f168201915b50505050508152602001600382018054600181600116156101000203166002900480601f0160208091040260200160405190810160405280929190818152602001828054600181600116156101000203166002900480156108215780601f106107f657610100808354040283529160200191610821565b820191906000526020600020905b81548152906001019060200180831161080457829003601f168201915b5050505050815260200160048201548152602001600582015481526020016006820160009054906101000a900460ff16600181111561085c57fe5b600181111561086757fe5b81526020016006820160019054906101000a900473ffffffffffffffffffffffffffffffffffffffff1673ffffffffffffffffffffffffffffffffffffffff1673ffffffffffffffffffffffffffffffffffffffff16815250509050806000015181602001518260400151836060015184608001518560a001518660c001518760e001518696508595508494509850985098509850985098509850985050919395975091939597565b610100604051908101604052806000815260200160608152602001606081526020016060815260200160008152602001600081526020016000600181111561095457fe5b8152602001600073ffffffffffffffffffffffffffffffffffffffff1681525090565b828054600181600116156101000203166002900490600052602060002090601f016020900481019282601f106109b857805160ff19168380011785556109e6565b828001600101855582156109e6579182015b828111156109e55782518255916020019190600101906109ca565b5b5090506109f391906109f7565b5090565b610a1991905b80821115610a155760008160009055506001016109fd565b5090565b905600a165627a7a7230582090c6e5adf3c792607a931614b6c08d91e86819bb4226b887fbc49e3803734cb60029",
  "source": "pragma solidity ^0.4.23;\n\ncontract EcommerceStore{\n    enum ProductCondition {New, Used}\n    uint public ProductIndex;\n    mapping(address => mapping(uint => Product)) stores;\n    mapping(uint=> address) productIdInStore;\n    \n    struct Product {\n        uint id;\n        string name;\n        string catelogy;\n        string imgLink;\n        uint startTime;\n        uint price;\n        ProductCondition condition;\n        address buyer;\n    }\n    constructor() public {\n        ProductIndex=0;\n    }\n    \n    function addProductInStore(string _name, string _catelogy, string _imgLink, uint _startTime, uint _price, uint _condition) public{\n        ProductIndex +=1;\n        Product memory product = Product(ProductIndex, _name,  _catelogy, _imgLink,  _startTime, _price,ProductCondition(_condition), 0);\n    \n        stores[msg.sender][ProductIndex]= product;\n        productIdInStore[ProductIndex]= msg.sender;\n    }\n    \n    function getproduct(uint _producID) public view returns (uint, string, string , string, uint, uint, ProductCondition, address) {\n        Product memory product= stores[productIdInStore[_producID]][_producID];\n        return (product.id, product.name, product.catelogy, product.imgLink, product.startTime, product.price, product.condition, product.buyer);\n        \n    }\n    \n}",
  "sourcePath": "/home/ductran/Desktop/ebay-on-ethereum/contracts/EcommerceStore.sol",
  "compiler": {
    "name": "solc",
    "version": "0.4.24+commit.e67f0147.Emscripten.clang"
  },
  "schemaVersion": "2.0.1",
  "updatedAt": "2018-09-23T02:45:26.068Z"
}