{
  "contractName": "EcommerceStore",
  "abi": [
    {
      "constant": true,
      "inputs": [],
      "name": "ProductIndex",
      "outputs": [
        {
          "name": "",
          "type": "uint256"
        }
      ],
      "payable": false,
      "stateMutability": "view",
      "type": "function"
    },
    {
      "constant": true,
      "inputs": [],
      "name": "arbiter",
      "outputs": [
        {
          "name": "",
          "type": "address"
        }
      ],
      "payable": false,
      "stateMutability": "view",
      "type": "function"
    },
    {
      "inputs": [
        {
          "name": "_arbiter",
          "type": "address"
        }
      ],
      "payable": false,
      "stateMutability": "nonpayable",
      "type": "constructor"
    },
    {
      "constant": false,
      "inputs": [
        {
          "name": "_name",
          "type": "string"
        },
        {
          "name": "_catelogy",
          "type": "string"
        },
        {
          "name": "_imgLink",
          "type": "string"
        },
        {
          "name": "descLink",
          "type": "string"
        },
        {
          "name": "_startTime",
          "type": "uint256"
        },
        {
          "name": "_price",
          "type": "uint256"
        },
        {
          "name": "_condition",
          "type": "uint256"
        }
      ],
      "name": "addProductInStore",
      "outputs": [],
      "payable": false,
      "stateMutability": "nonpayable",
      "type": "function"
    },
    {
      "constant": true,
      "inputs": [
        {
          "name": "_producID",
          "type": "uint256"
        }
      ],
      "name": "getproduct",
      "outputs": [
        {
          "name": "",
          "type": "uint256"
        },
        {
          "name": "",
          "type": "string"
        },
        {
          "name": "",
          "type": "string"
        },
        {
          "name": "",
          "type": "string"
        },
        {
          "name": "",
          "type": "string"
        },
        {
          "name": "",
          "type": "uint256"
        },
        {
          "name": "",
          "type": "uint256"
        },
        {
          "name": "",
          "type": "uint8"
        },
        {
          "name": "",
          "type": "address"
        }
      ],
      "payable": false,
      "stateMutability": "view",
      "type": "function"
    },
    {
      "constant": false,
      "inputs": [
        {
          "name": "_productId",
          "type": "uint256"
        }
      ],
      "name": "buy",
      "outputs": [],
      "payable": true,
      "stateMutability": "payable",
      "type": "function"
    },
    {
      "constant": true,
      "inputs": [
        {
          "name": "_productId",
          "type": "uint256"
        }
      ],
      "name": "escrowInfo",
      "outputs": [
        {
          "name": "",
          "type": "address"
        },
        {
          "name": "",
          "type": "address"
        },
        {
          "name": "",
          "type": "address"
        },
        {
          "name": "",
          "type": "bool"
        },
        {
          "name": "",
          "type": "uint256"
        },
        {
          "name": "",
          "type": "uint256"
        }
      ],
      "payable": false,
      "stateMutability": "view",
      "type": "function"
    },
    {
      "constant": false,
      "inputs": [
        {
          "name": "_productId",
          "type": "uint256"
        }
      ],
      "name": "refundAmountToBuyer",
      "outputs": [],
      "payable": false,
      "stateMutability": "nonpayable",
      "type": "function"
    },
    {
      "constant": false,
      "inputs": [
        {
          "name": "_productId",
          "type": "uint256"
        }
      ],
      "name": "releaseAmountToSeller",
      "outputs": [],
      "payable": false,
      "stateMutability": "nonpayable",
      "type": "function"
    }
  ],
  "bytecode": "0x608060405234801561001057600080fd5b506040516020806125f1833981018060405281019080805190602001909291905050506000808190555080600160006101000a81548173ffffffffffffffffffffffffffffffffffffffff021916908373ffffffffffffffffffffffffffffffffffffffff160217905550506125668061008b6000396000f30060806040526004361061008e576000357c0100000000000000000000000000000000000000000000000000000000900463ffffffff168063283205231461009357806383560525146100be5780639a3a7c69146101aa578063b68fb9ab146101d7578063cc352db714610330578063d96a094a1461035d578063f008ef181461037d578063fe25e00a146105c4575b600080fd5b34801561009f57600080fd5b506100a861061b565b6040518082815260200191505060405180910390f35b3480156100ca57600080fd5b506100e960048036038101908080359060200190929190505050610621565b604051808773ffffffffffffffffffffffffffffffffffffffff1673ffffffffffffffffffffffffffffffffffffffff1681526020018673ffffffffffffffffffffffffffffffffffffffff1673ffffffffffffffffffffffffffffffffffffffff1681526020018573ffffffffffffffffffffffffffffffffffffffff1673ffffffffffffffffffffffffffffffffffffffff16815260200184151515158152602001838152602001828152602001965050505050505060405180910390f35b3480156101b657600080fd5b506101d560048036038101908080359060200190929190505050610743565b005b3480156101e357600080fd5b5061032e600480360381019080803590602001908201803590602001908080601f0160208091040260200160405190810160405280939291908181526020018383808284378201915050505050509192919290803590602001908201803590602001908080601f0160208091040260200160405190810160405280939291908181526020018383808284378201915050505050509192919290803590602001908201803590602001908080601f0160208091040260200160405190810160405280939291908181526020018383808284378201915050505050509192919290803590602001908201803590602001908080601f016020809104026020016040519081016040528093929190818152602001838380828437820191505050505050919291929080359060200190929190803590602001909291908035906020019092919050505061082c565b005b34801561033c57600080fd5b5061035b60048036038101908080359060200190929190505050610a6b565b005b61037b60048036038101908080359060200190929190505050610b54565b005b34801561038957600080fd5b506103a8600480360381019080803590602001909291905050506112ab565b604051808a8152602001806020018060200180602001806020018981526020018881526020018760018111156103da57fe5b60ff1681526020018673ffffffffffffffffffffffffffffffffffffffff1673ffffffffffffffffffffffffffffffffffffffff16815260200185810385528d818151815260200191508051906020019080838360005b8381101561044c578082015181840152602081019050610431565b50505050905090810190601f1680156104795780820380516001836020036101000a031916815260200191505b5085810384528c818151815260200191508051906020019080838360005b838110156104b2578082015181840152602081019050610497565b50505050905090810190601f1680156104df5780820380516001836020036101000a031916815260200191505b5085810383528b818151815260200191508051906020019080838360005b838110156105185780820151818401526020810190506104fd565b50505050905090810190601f1680156105455780820380516001836020036101000a031916815260200191505b5085810382528a818151815260200191508051906020019080838360005b8381101561057e578082015181840152602081019050610563565b50505050905090810190601f1680156105ab5780820380516001836020036101000a031916815260200191505b509d505050505050505050505050505060405180910390f35b3480156105d057600080fd5b506105d96116d6565b604051808273ffffffffffffffffffffffffffffffffffffffff1673ffffffffffffffffffffffffffffffffffffffff16815260200191505060405180910390f35b60005481565b6000806000806000806004600088815260200190815260200160002060009054906101000a900473ffffffffffffffffffffffffffffffffffffffff1673ffffffffffffffffffffffffffffffffffffffff1663f3d259046040518163ffffffff167c010000000000000000000000000000000000000000000000000000000002815260040160c060405180830381600087803b1580156106c157600080fd5b505af11580156106d5573d6000803e3d6000fd5b505050506040513d60c08110156106eb57600080fd5b8101908080519060200190929190805190602001909291908051906020019092919080519060200190929190805190602001909291908051906020019092919050505095509550955095509550955091939550919395565b6004600082815260200190815260200160002060009054906101000a900473ffffffffffffffffffffffffffffffffffffffff1673ffffffffffffffffffffffffffffffffffffffff166358aad10b336040518263ffffffff167c0100000000000000000000000000000000000000000000000000000000028152600401808273ffffffffffffffffffffffffffffffffffffffff1673ffffffffffffffffffffffffffffffffffffffff168152602001915050600060405180830381600087803b15801561081157600080fd5b505af1158015610825573d6000803e3d6000fd5b5050505050565b6108346116fc565b6001600080828254019250508190555061012060405190810160405280600054815260200189815260200188815260200187815260200186815260200185815260200184815260200183600181111561088957fe5b600181111561089457fe5b8152602001600073ffffffffffffffffffffffffffffffffffffffff16815250905080600260003373ffffffffffffffffffffffffffffffffffffffff1673ffffffffffffffffffffffffffffffffffffffff16815260200190815260200160002060008054815260200190815260200160002060008201518160000155602082015181600101908051906020019061092e92919061176a565b50604082015181600201908051906020019061094b92919061176a565b50606082015181600301908051906020019061096892919061176a565b50608082015181600401908051906020019061098592919061176a565b5060a0820151816005015560c0820151816006015560e08201518160070160006101000a81548160ff021916908360018111156109be57fe5b02179055506101008201518160070160016101000a81548173ffffffffffffffffffffffffffffffffffffffff021916908373ffffffffffffffffffffffffffffffffffffffff16021790555090505033600360008054815260200190815260200160002060006101000a81548173ffffffffffffffffffffffffffffffffffffffff021916908373ffffffffffffffffffffffffffffffffffffffff1602179055505050505050505050565b6004600082815260200190815260200160002060009054906101000a900473ffffffffffffffffffffffffffffffffffffffff1673ffffffffffffffffffffffffffffffffffffffff1663a97d1b10336040518263ffffffff167c0100000000000000000000000000000000000000000000000000000000028152600401808273ffffffffffffffffffffffffffffffffffffffff1673ffffffffffffffffffffffffffffffffffffffff168152602001915050600060405180830381600087803b158015610b3957600080fd5b505af1158015610b4d573d6000803e3d6000fd5b5050505050565b610b5c6116fc565b6000600260006003600086815260200190815260200160002060009054906101000a900473ffffffffffffffffffffffffffffffffffffffff1673ffffffffffffffffffffffffffffffffffffffff1673ffffffffffffffffffffffffffffffffffffffff1681526020019081526020016000206000848152602001908152602001600020610120604051908101604052908160008201548152602001600182018054600181600116156101000203166002900480601f016020809104026020016040519081016040528092919081815260200182805460018160011615610100020316600290048015610c915780601f10610c6657610100808354040283529160200191610c91565b820191906000526020600020905b815481529060010190602001808311610c7457829003601f168201915b50505050508152602001600282018054600181600116156101000203166002900480601f016020809104026020016040519081016040528092919081815260200182805460018160011615610100020316600290048015610d335780601f10610d0857610100808354040283529160200191610d33565b820191906000526020600020905b815481529060010190602001808311610d1657829003601f168201915b50505050508152602001600382018054600181600116156101000203166002900480601f016020809104026020016040519081016040528092919081815260200182805460018160011615610100020316600290048015610dd55780601f10610daa57610100808354040283529160200191610dd5565b820191906000526020600020905b815481529060010190602001808311610db857829003601f168201915b50505050508152602001600482018054600181600116156101000203166002900480601f016020809104026020016040519081016040528092919081815260200182805460018160011615610100020316600290048015610e775780601f10610e4c57610100808354040283529160200191610e77565b820191906000526020600020905b815481529060010190602001808311610e5a57829003601f168201915b5050505050815260200160058201548152602001600682015481526020016007820160009054906101000a900460ff166001811115610eb257fe5b6001811115610ebd57fe5b81526020016007820160019054906101000a900473ffffffffffffffffffffffffffffffffffffffff1673ffffffffffffffffffffffffffffffffffffffff1673ffffffffffffffffffffffffffffffffffffffff16815250509150600073ffffffffffffffffffffffffffffffffffffffff1682610100015173ffffffffffffffffffffffffffffffffffffffff16141515610f5957600080fd5b8160c001513410151515610f6c57600080fd5b3382610100019073ffffffffffffffffffffffffffffffffffffffff16908173ffffffffffffffffffffffffffffffffffffffff168152505081600260006003600087815260200190815260200160002060009054906101000a900473ffffffffffffffffffffffffffffffffffffffff1673ffffffffffffffffffffffffffffffffffffffff1673ffffffffffffffffffffffffffffffffffffffff168152602001908152602001600020600085815260200190815260200160002060008201518160000155602082015181600101908051906020019061104f92919061176a565b50604082015181600201908051906020019061106c92919061176a565b50606082015181600301908051906020019061108992919061176a565b5060808201518160040190805190602001906110a692919061176a565b5060a0820151816005015560c0820151816006015560e08201518160070160006101000a81548160ff021916908360018111156110df57fe5b02179055506101008201518160070160016101000a81548173ffffffffffffffffffffffffffffffffffffffff021916908373ffffffffffffffffffffffffffffffffffffffff1602179055509050503483336003600087815260200190815260200160002060009054906101000a900473ffffffffffffffffffffffffffffffffffffffff16600160009054906101000a900473ffffffffffffffffffffffffffffffffffffffff166111916117ea565b808581526020018473ffffffffffffffffffffffffffffffffffffffff1673ffffffffffffffffffffffffffffffffffffffff1681526020018373ffffffffffffffffffffffffffffffffffffffff1673ffffffffffffffffffffffffffffffffffffffff1681526020018273ffffffffffffffffffffffffffffffffffffffff1673ffffffffffffffffffffffffffffffffffffffff1681526020019450505050506040518091039082f08015801561124f573d6000803e3d6000fd5b5090509050806004600085815260200190815260200160002060006101000a81548173ffffffffffffffffffffffffffffffffffffffff021916908373ffffffffffffffffffffffffffffffffffffffff160217905550505050565b60006060806060806000806000806112c16116fc565b60026000600360008e815260200190815260200160002060009054906101000a900473ffffffffffffffffffffffffffffffffffffffff1673ffffffffffffffffffffffffffffffffffffffff1673ffffffffffffffffffffffffffffffffffffffff16815260200190815260200160002060008c8152602001908152602001600020610120604051908101604052908160008201548152602001600182018054600181600116156101000203166002900480601f0160208091040260200160405190810160405280929190818152602001828054600181600116156101000203166002900480156113f45780601f106113c9576101008083540402835291602001916113f4565b820191906000526020600020905b8154815290600101906020018083116113d757829003601f168201915b50505050508152602001600282018054600181600116156101000203166002900480601f0160208091040260200160405190810160405280929190818152602001828054600181600116156101000203166002900480156114965780601f1061146b57610100808354040283529160200191611496565b820191906000526020600020905b81548152906001019060200180831161147957829003601f168201915b50505050508152602001600382018054600181600116156101000203166002900480601f0160208091040260200160405190810160405280929190818152602001828054600181600116156101000203166002900480156115385780601f1061150d57610100808354040283529160200191611538565b820191906000526020600020905b81548152906001019060200180831161151b57829003601f168201915b50505050508152602001600482018054600181600116156101000203166002900480601f0160208091040260200160405190810160405280929190818152602001828054600181600116156101000203166002900480156115da5780601f106115af576101008083540402835291602001916115da565b820191906000526020600020905b8154815290600101906020018083116115bd57829003601f168201915b5050505050815260200160058201548152602001600682015481526020016007820160009054906101000a900460ff16600181111561161557fe5b600181111561162057fe5b81526020016007820160019054906101000a900473ffffffffffffffffffffffffffffffffffffffff1673ffffffffffffffffffffffffffffffffffffffff1673ffffffffffffffffffffffffffffffffffffffff16815250509050806000015181602001518260400151836060015184608001518560a001518660c001518760e00151886101000151879750869650859550849450995099509950995099509950995099509950509193959799909294969850565b600160009054906101000a900473ffffffffffffffffffffffffffffffffffffffff1681565b61012060405190810160405280600081526020016060815260200160608152602001606081526020016060815260200160008152602001600081526020016000600181111561174757fe5b8152602001600073ffffffffffffffffffffffffffffffffffffffff1681525090565b828054600181600116156101000203166002900490600052602060002090601f016020900481019282601f106117ab57805160ff19168380011785556117d9565b828001600101855582156117d9579182015b828111156117d85782518255916020019190600101906117bd565b5b5090506117e691906117fa565b5090565b604051610d1b8061182083390190565b61181c91905b80821115611818576000816000905550600101611800565b5090565b9056006080604052604051608080610d1b83398101806040528101908080519060200190929190805190602001909291908051906020019092919080519060200190929190505050826000806101000a81548173ffffffffffffffffffffffffffffffffffffffff021916908373ffffffffffffffffffffffffffffffffffffffff16021790555081600160006101000a81548173ffffffffffffffffffffffffffffffffffffffff021916908373ffffffffffffffffffffffffffffffffffffffff16021790555080600260006101000a81548173ffffffffffffffffffffffffffffffffffffffff021916908373ffffffffffffffffffffffffffffffffffffffff1602179055506000600a60006101000a81548160ff0219169083151502179055503460058190555033600360006101000a81548173ffffffffffffffffffffffffffffffffffffffff021916908373ffffffffffffffffffffffffffffffffffffffff1602179055508360048190555050505050610b98806101836000396000f3006080604052600436106100ba576000357c0100000000000000000000000000000000000000000000000000000000900463ffffffff16806308551a53146100bf5780630bda4dbf1461011657806358aad10b146101415780637150d8ae146101845780638da5cb5b146101db578063a97d1b1014610232578063aa8c217c14610275578063b8d08db2146102a0578063c5ce3911146102cb578063d1a52e30146102f6578063f3d2590414610325578063fe25e00a146103fb575b600080fd5b3480156100cb57600080fd5b506100d4610452565b604051808273ffffffffffffffffffffffffffffffffffffffff1673ffffffffffffffffffffffffffffffffffffffff16815260200191505060405180910390f35b34801561012257600080fd5b5061012b610478565b6040518082815260200191505060405180910390f35b34801561014d57600080fd5b50610182600480360381019080803573ffffffffffffffffffffffffffffffffffffffff16906020019092919050505061047e565b005b34801561019057600080fd5b5061019961075d565b604051808273ffffffffffffffffffffffffffffffffffffffff1673ffffffffffffffffffffffffffffffffffffffff16815260200191505060405180910390f35b3480156101e757600080fd5b506101f0610782565b604051808273ffffffffffffffffffffffffffffffffffffffff1673ffffffffffffffffffffffffffffffffffffffff16815260200191505060405180910390f35b34801561023e57600080fd5b50610273600480360381019080803573ffffffffffffffffffffffffffffffffffffffff1690602001909291905050506107a8565b005b34801561028157600080fd5b5061028a610a86565b6040518082815260200191505060405180910390f35b3480156102ac57600080fd5b506102b5610a8c565b6040518082815260200191505060405180910390f35b3480156102d757600080fd5b506102e0610a92565b6040518082815260200191505060405180910390f35b34801561030257600080fd5b5061030b610a98565b604051808215151515815260200191505060405180910390f35b34801561033157600080fd5b5061033a610aab565b604051808773ffffffffffffffffffffffffffffffffffffffff1673ffffffffffffffffffffffffffffffffffffffff1681526020018673ffffffffffffffffffffffffffffffffffffffff1673ffffffffffffffffffffffffffffffffffffffff1681526020018573ffffffffffffffffffffffffffffffffffffffff1673ffffffffffffffffffffffffffffffffffffffff16815260200184151515158152602001838152602001828152602001965050505050505060405180910390f35b34801561040757600080fd5b50610410610b46565b604051808273ffffffffffffffffffffffffffffffffffffffff1673ffffffffffffffffffffffffffffffffffffffff16815260200191505060405180910390f35b600160009054906101000a900473ffffffffffffffffffffffffffffffffffffffff1681565b60095481565b60001515600a60009054906101000a900460ff1615151415156104a057600080fd5b600360009054906101000a900473ffffffffffffffffffffffffffffffffffffffff1673ffffffffffffffffffffffffffffffffffffffff163373ffffffffffffffffffffffffffffffffffffffff161415156104fc57600080fd5b6000809054906101000a900473ffffffffffffffffffffffffffffffffffffffff1673ffffffffffffffffffffffffffffffffffffffff168173ffffffffffffffffffffffffffffffffffffffff1614806105a45750600160009054906101000a900473ffffffffffffffffffffffffffffffffffffffff1673ffffffffffffffffffffffffffffffffffffffff168173ffffffffffffffffffffffffffffffffffffffff16145b806105fc5750600260009054906101000a900473ffffffffffffffffffffffffffffffffffffffff1673ffffffffffffffffffffffffffffffffffffffff168173ffffffffffffffffffffffffffffffffffffffff16145b8015610659575060011515600660008373ffffffffffffffffffffffffffffffffffffffff1673ffffffffffffffffffffffffffffffffffffffff16815260200190815260200160002060009054906101000a900460ff16151514155b156106c8576001600660008373ffffffffffffffffffffffffffffffffffffffff1673ffffffffffffffffffffffffffffffffffffffff16815260200190815260200160002060006101000a81548160ff02191690831515021790555060016008600082825401925050819055505b6002600854141561075a57600160009054906101000a900473ffffffffffffffffffffffffffffffffffffffff1673ffffffffffffffffffffffffffffffffffffffff166108fc6005549081150290604051600060405180830381858888f1935050505015801561073d573d6000803e3d6000fd5b506001600a60006101000a81548160ff0219169083151502179055505b50565b6000809054906101000a900473ffffffffffffffffffffffffffffffffffffffff1681565b600360009054906101000a900473ffffffffffffffffffffffffffffffffffffffff1681565b60001515600a60009054906101000a900460ff1615151415156107ca57600080fd5b600360009054906101000a900473ffffffffffffffffffffffffffffffffffffffff1673ffffffffffffffffffffffffffffffffffffffff163373ffffffffffffffffffffffffffffffffffffffff1614151561082657600080fd5b6000809054906101000a900473ffffffffffffffffffffffffffffffffffffffff1673ffffffffffffffffffffffffffffffffffffffff168173ffffffffffffffffffffffffffffffffffffffff1614806108ce5750600160009054906101000a900473ffffffffffffffffffffffffffffffffffffffff1673ffffffffffffffffffffffffffffffffffffffff168173ffffffffffffffffffffffffffffffffffffffff16145b806109265750600260009054906101000a900473ffffffffffffffffffffffffffffffffffffffff1673ffffffffffffffffffffffffffffffffffffffff168173ffffffffffffffffffffffffffffffffffffffff16145b8015610983575060011515600760008373ffffffffffffffffffffffffffffffffffffffff1673ffffffffffffffffffffffffffffffffffffffff16815260200190815260200160002060009054906101000a900460ff16151514155b156109f2576001600760008373ffffffffffffffffffffffffffffffffffffffff1673ffffffffffffffffffffffffffffffffffffffff16815260200190815260200160002060006101000a81548160ff02191690831515021790555060016009600082825401925050819055505b60026009541415610a83576000809054906101000a900473ffffffffffffffffffffffffffffffffffffffff1673ffffffffffffffffffffffffffffffffffffffff166108fc6005549081150290604051600060405180830381858888f19350505050158015610a66573d6000803e3d6000fd5b506001600a60006101000a81548160ff0219169083151502179055505b50565b60055481565b60085481565b60045481565b600a60009054906101000a900460ff1681565b6000806000806000806000809054906101000a900473ffffffffffffffffffffffffffffffffffffffff16600160009054906101000a900473ffffffffffffffffffffffffffffffffffffffff16600260009054906101000a900473ffffffffffffffffffffffffffffffffffffffff16600a60009054906101000a900460ff16600854600954955095509550955095509550909192939495565b600260009054906101000a900473ffffffffffffffffffffffffffffffffffffffff16815600a165627a7a723058208a2840109d1d8314cd95316ab639232d17e4ac6b76335d218e7e609c47f77dce0029a165627a7a72305820cb85d8d15ba60aba8ba197373329e13a84ad3befc55ddbe3025a29d1fcb3cb3f0029",
  "source": "pragma solidity ^0.4.23;\nimport \"contracts/Escrow.sol\";\n\ncontract EcommerceStore{\n    enum ProductCondition {New, Used}\n    \n    uint public ProductIndex;\n    \n    address  public arbiter;\n\n    mapping(address => mapping(uint => Product)) stores;\n    mapping(uint=> address) productIdInStore;\n    \n    mapping (uint=>address) productEscrow;\n    struct Product {\n        uint id;\n        string name;\n        string catelogy;\n        string imgLink;\n        string descLink;\n        uint startTime;\n        uint price;\n        ProductCondition condition;\n        address buyer;\n    }\n    constructor(address _arbiter) public {\n        ProductIndex=0;\n        arbiter = _arbiter;\n    }\n    \n    function addProductInStore(string _name, string _catelogy, string _imgLink, string descLink, uint _startTime, uint _price, uint _condition) public{\n        ProductIndex +=1;\n        Product memory product = Product(ProductIndex, _name,  _catelogy, _imgLink, descLink, _startTime, _price,ProductCondition(_condition), 0);\n    \n        stores[msg.sender][ProductIndex] = product;\n        productIdInStore[ProductIndex] = msg.sender;\n    }\n    \n    function getproduct(uint _producID) public view returns (uint, string, string , string, string, uint, uint, ProductCondition, address) {\n        Product memory product = stores[productIdInStore[_producID]][_producID];\n        return (product.id, product.name, product.catelogy, product.imgLink,product.descLink, product.startTime, product.price, product.condition, product.buyer);\n        \n    }\n    \n    function buy(uint _productId) payable public {\n        Product memory product = stores[productIdInStore[_productId]][_productId]; // ly product theo id \n        require(product.buyer == address(0)); // kim tra sn phm cha c mua \n        require(msg.value >= product.price); // kim tra s tin c   mua sn phm ny khng \n        product.buyer = msg.sender; //  xc nh ai l ngi mua sn phm ny  \n        stores[productIdInStore[_productId]][_productId] = product; // cp nht li thng tin v ca hng v sn phm \n\n        Escrow escrow = (new Escrow).value(msg.value)(_productId, msg.sender, productIdInStore[_productId], arbiter);\n        productEscrow[_productId] = escrow;\n    }\n\n    function escrowInfo(uint _productId) view public returns (address, address, address, bool, uint, uint){\n        return Escrow(productEscrow[_productId]).escrowInfo();\n    }\n\n\n    function refundAmountToBuyer(uint _productId) public {\n        Escrow(productEscrow[_productId]).refundAmountToBuyer(msg.sender);\n    }\n\n    function releaseAmountToSeller(uint _productId) public {\n        Escrow(productEscrow[_productId]).releaseAmountToSeller(msg.sender);\n    }\n\n\n}",
  "sourcePath": "/home/ductran/Desktop/ebay-on-ethereum/Decentralized-Ecommerce-Store/contracts/EcommerceStore.sol",
  "compiler": {
    "name": "solc",
    "version": "0.4.24+commit.e67f0147.Emscripten.clang"
  },
  "schemaVersion": "2.0.1",
  "updatedAt": "2018-09-27T03:47:30.358Z"
}